{
  "contractName": "CoinFlipGame",
  "abi": [
    {
      "anonymous": false,
      "inputs": [
        {
          "indexed": true,
          "internalType": "uint256",
          "name": "roomId",
          "type": "uint256"
        },
        {
          "indexed": false,
          "internalType": "uint256",
          "name": "tossResult",
          "type": "uint256"
        }
      ],
      "name": "CoinToss",
      "type": "event"
    },
    {
      "anonymous": false,
      "inputs": [
        {
          "indexed": false,
          "internalType": "uint256",
          "name": "roomId",
          "type": "uint256"
        },
        {
          "indexed": false,
          "internalType": "bool",
          "name": "hostWon",
          "type": "bool"
        },
        {
          "indexed": false,
          "internalType": "bool",
          "name": "guestWon",
          "type": "bool"
        }
      ],
      "name": "GameResult",
      "type": "event"
    },
    {
      "anonymous": false,
      "inputs": [
        {
          "indexed": false,
          "internalType": "string",
          "name": "message",
          "type": "string"
        }
      ],
      "name": "LogMessage",
      "type": "event"
    },
    {
      "anonymous": false,
      "inputs": [
        {
          "indexed": false,
          "internalType": "uint256",
          "name": "roomId",
          "type": "uint256"
        },
        {
          "indexed": false,
          "internalType": "address",
          "name": "host",
          "type": "address"
        },
        {
          "indexed": false,
          "internalType": "string",
          "name": "hostUsername",
          "type": "string"
        },
        {
          "indexed": false,
          "internalType": "uint256",
          "name": "betAmount",
          "type": "uint256"
        }
      ],
      "name": "RoomCreated",
      "type": "event"
    },
    {
      "anonymous": false,
      "inputs": [
        {
          "indexed": false,
          "internalType": "uint256",
          "name": "roomId",
          "type": "uint256"
        },
        {
          "indexed": false,
          "internalType": "address",
          "name": "guest",
          "type": "address"
        },
        {
          "indexed": false,
          "internalType": "string",
          "name": "guestUsername",
          "type": "string"
        }
      ],
      "name": "RoomJoined",
      "type": "event"
    },
    {
      "anonymous": false,
      "inputs": [
        {
          "indexed": false,
          "internalType": "uint256",
          "name": "roomId",
          "type": "uint256"
        },
        {
          "indexed": false,
          "internalType": "address",
          "name": "user",
          "type": "address"
        }
      ],
      "name": "UserReady",
      "type": "event"
    },
    {
      "inputs": [],
      "name": "roomCount",
      "outputs": [
        {
          "internalType": "uint256",
          "name": "",
          "type": "uint256"
        }
      ],
      "stateMutability": "view",
      "type": "function",
      "constant": true
    },
    {
      "inputs": [
        {
          "internalType": "uint256",
          "name": "",
          "type": "uint256"
        }
      ],
      "name": "rooms",
      "outputs": [
        {
          "internalType": "uint256",
          "name": "id",
          "type": "uint256"
        },
        {
          "internalType": "address payable",
          "name": "host",
          "type": "address"
        },
        {
          "internalType": "string",
          "name": "hostUsername",
          "type": "string"
        },
        {
          "internalType": "address payable",
          "name": "guest",
          "type": "address"
        },
        {
          "internalType": "string",
          "name": "guestUsername",
          "type": "string"
        },
        {
          "internalType": "uint256",
          "name": "betAmount",
          "type": "uint256"
        },
        {
          "internalType": "bool",
          "name": "hostReady",
          "type": "bool"
        },
        {
          "internalType": "bool",
          "name": "guestReady",
          "type": "bool"
        },
        {
          "internalType": "uint8",
          "name": "hostGuess",
          "type": "uint8"
        },
        {
          "internalType": "uint8",
          "name": "guestGuess",
          "type": "uint8"
        },
        {
          "internalType": "bool",
          "name": "isActive",
          "type": "bool"
        }
      ],
      "stateMutability": "view",
      "type": "function",
      "constant": true
    },
    {
      "inputs": [
        {
          "internalType": "address",
          "name": "",
          "type": "address"
        }
      ],
      "name": "usernameByAddress",
      "outputs": [
        {
          "internalType": "string",
          "name": "",
          "type": "string"
        }
      ],
      "stateMutability": "view",
      "type": "function",
      "constant": true
    },
    {
      "inputs": [
        {
          "internalType": "string",
          "name": "_username",
          "type": "string"
        }
      ],
      "name": "setUsername",
      "outputs": [],
      "stateMutability": "nonpayable",
      "type": "function"
    },
    {
      "inputs": [
        {
          "internalType": "uint256",
          "name": "_betAmount",
          "type": "uint256"
        }
      ],
      "name": "createRoom",
      "outputs": [],
      "stateMutability": "payable",
      "type": "function",
      "payable": true
    },
    {
      "inputs": [
        {
          "internalType": "uint256",
          "name": "_roomId",
          "type": "uint256"
        }
      ],
      "name": "joinRoom",
      "outputs": [],
      "stateMutability": "payable",
      "type": "function",
      "payable": true
    },
    {
      "inputs": [
        {
          "internalType": "uint256",
          "name": "_roomId",
          "type": "uint256"
        },
        {
          "internalType": "uint8",
          "name": "_guess",
          "type": "uint8"
        }
      ],
      "name": "setReady",
      "outputs": [],
      "stateMutability": "nonpayable",
      "type": "function"
    },
    {
      "inputs": [
        {
          "internalType": "uint256",
          "name": "_roomId",
          "type": "uint256"
        },
        {
          "internalType": "uint8",
          "name": "_tossResult",
          "type": "uint8"
        }
      ],
      "name": "handleCoinTossResult",
      "outputs": [],
      "stateMutability": "nonpayable",
      "type": "function"
    },
    {
      "inputs": [
        {
          "internalType": "uint256",
          "name": "_roomId",
          "type": "uint256"
        }
      ],
      "name": "leaveRoom",
      "outputs": [],
      "stateMutability": "nonpayable",
      "type": "function"
    }
  ],
  "bytecode": "0x60806040526000805534801561001457600080fd5b5061297c806100246000396000f3fe6080604052600436106100865760003560e01c8063779db57311610059578063779db573146101615780639cfc4b451461018a578063bbba8257146101a6578063df93a4e3146101c2578063ed59313a146101ed57610086565b80631bae0ac81461008b578063322befc3146100d25780635d122abf1461010f5780636c11a52014610138575b600080fd5b34801561009757600080fd5b506100b260048036038101906100ad91906119e6565b610216565b6040516100c99b9a99989796959493929190611b2a565b60405180910390f35b3480156100de57600080fd5b506100f960048036038101906100f49190611c21565b610401565b6040516101069190611c4e565b60405180910390f35b34801561011b57600080fd5b5061013660048036038101906101319190611c9c565b6104a1565b005b34801561014457600080fd5b5061015f600480360381019061015a9190611c9c565b610921565b005b34801561016d57600080fd5b50610188600480360381019061018391906119e6565b610c7f565b005b6101a4600480360381019061019f91906119e6565b6112d3565b005b6101c060048036038101906101bb91906119e6565b611524565b005b3480156101ce57600080fd5b506101d76118e9565b6040516101e49190611cdc565b60405180910390f35b3480156101f957600080fd5b50610214600480360381019061020f9190611e2c565b6118ef565b005b60016020528060005260406000206000915090508060000154908060010160009054906101000a900473ffffffffffffffffffffffffffffffffffffffff169080600201805461026590611ea4565b80601f016020809104026020016040519081016040528092919081815260200182805461029190611ea4565b80156102de5780601f106102b3576101008083540402835291602001916102de565b820191906000526020600020905b8154815290600101906020018083116102c157829003601f168201915b5050505050908060030160009054906101000a900473ffffffffffffffffffffffffffffffffffffffff169080600401805461031990611ea4565b80601f016020809104026020016040519081016040528092919081815260200182805461034590611ea4565b80156103925780601f1061036757610100808354040283529160200191610392565b820191906000526020600020905b81548152906001019060200180831161037557829003601f168201915b5050505050908060050154908060060160009054906101000a900460ff16908060060160019054906101000a900460ff16908060060160029054906101000a900460ff16908060060160039054906101000a900460ff16908060060160049054906101000a900460ff1690508b565b6002602052806000526040600020600091509050805461042090611ea4565b80601f016020809104026020016040519081016040528092919081815260200182805461044c90611ea4565b80156104995780601f1061046e57610100808354040283529160200191610499565b820191906000526020600020905b81548152906001019060200180831161047c57829003601f168201915b505050505081565b60008160ff1614806104b6575060018160ff16145b6104f5576040517f08c379a00000000000000000000000000000000000000000000000000000000081526004016104ec90611f21565b60405180910390fd5b60006001600084815260200190815260200160002090508060060160009054906101000a900460ff16801561053857508060060160019054906101000a900460ff165b610577576040517f08c379a000000000000000000000000000000000000000000000000000000000815260040161056e90611f8d565b60405180910390fd5b60008260ff168260060160029054906101000a900460ff1660ff1614905060008360ff168360060160039054906101000a900460ff1660ff161490508180156105bd5750805b156106a5578260010160009054906101000a900473ffffffffffffffffffffffffffffffffffffffff1673ffffffffffffffffffffffffffffffffffffffff166108fc84600501549081150290604051600060405180830381858888f19350505050158015610630573d6000803e3d6000fd5b508260030160009054906101000a900473ffffffffffffffffffffffffffffffffffffffff1673ffffffffffffffffffffffffffffffffffffffff166108fc84600501549081150290604051600060405180830381858888f1935050505015801561069f573d6000803e3d6000fd5b506108c2565b8115610743578260010160009054906101000a900473ffffffffffffffffffffffffffffffffffffffff1673ffffffffffffffffffffffffffffffffffffffff166108fc60646063600287600501546106fe9190611fdc565b6107089190611fdc565b610712919061204d565b9081150290604051600060405180830381858888f1935050505015801561073d573d6000803e3d6000fd5b506108c1565b80156107e1578260030160009054906101000a900473ffffffffffffffffffffffffffffffffffffffff1673ffffffffffffffffffffffffffffffffffffffff166108fc606460636002876005015461079c9190611fdc565b6107a69190611fdc565b6107b0919061204d565b9081150290604051600060405180830381858888f193505050501580156107db573d6000803e3d6000fd5b506108c0565b8260010160009054906101000a900473ffffffffffffffffffffffffffffffffffffffff1673ffffffffffffffffffffffffffffffffffffffff166108fc84600501549081150290604051600060405180830381858888f1935050505015801561084f573d6000803e3d6000fd5b508260030160009054906101000a900473ffffffffffffffffffffffffffffffffffffffff1673ffffffffffffffffffffffffffffffffffffffff166108fc84600501549081150290604051600060405180830381858888f193505050501580156108be573d6000803e3d6000fd5b505b5b5b60008360060160046101000a81548160ff0219169083151502179055507ffb056615d6131ad9d607fd095680f0c80a38efe0ed66906b8b59134d0007c2548583836040516109129392919061207e565b60405180910390a15050505050565b60006001600084815260200190815260200160002090508060060160049054906101000a900460ff16610989576040517f08c379a000000000000000000000000000000000000000000000000000000000815260040161098090612101565b60405180910390fd5b8060010160009054906101000a900473ffffffffffffffffffffffffffffffffffffffff1673ffffffffffffffffffffffffffffffffffffffff163373ffffffffffffffffffffffffffffffffffffffff161480610a3657508060030160009054906101000a900473ffffffffffffffffffffffffffffffffffffffff1673ffffffffffffffffffffffffffffffffffffffff163373ffffffffffffffffffffffffffffffffffffffff16145b610a75576040517f08c379a0000000000000000000000000000000000000000000000000000000008152600401610a6c9061216d565b60405180910390fd5b60008260ff161480610a8a575060018260ff16145b610ac9576040517f08c379a0000000000000000000000000000000000000000000000000000000008152600401610ac0906121d9565b60405180910390fd5b8060010160009054906101000a900473ffffffffffffffffffffffffffffffffffffffff1673ffffffffffffffffffffffffffffffffffffffff163373ffffffffffffffffffffffffffffffffffffffff1603610b5f5760018160060160006101000a81548160ff021916908315150217905550818160060160026101000a81548160ff021916908360ff160217905550610b9a565b60018160060160016101000a81548160ff021916908315150217905550818160060160036101000a81548160ff021916908360ff1602179055505b7f1da8dd93e0e4998622567aebeab099889fe34e99b632bd637676a98c512decbe8333604051610bcb929190612208565b60405180910390a18060060160009054906101000a900460ff168015610bff57508060060160019054906101000a900460ff165b15610c7a57600060024244604051602001610c1b929190612252565b6040516020818303038152906040528051906020012060001c610c3e919061227e565b9050837fea9cd12fd2abc1f864bf47d8cdac03620401c0a10872fd105723dc37d019ed3982604051610c709190611cdc565b60405180910390a2505b505050565b60006001600083815260200190815260200160002090508060060160049054906101000a900460ff1615610ce8576040517f08c379a0000000000000000000000000000000000000000000000000000000008152600401610cdf906122fb565b60405180910390fd5b8060010160009054906101000a900473ffffffffffffffffffffffffffffffffffffffff1673ffffffffffffffffffffffffffffffffffffffff163373ffffffffffffffffffffffffffffffffffffffff161480610d9557508060030160009054906101000a900473ffffffffffffffffffffffffffffffffffffffff1673ffffffffffffffffffffffffffffffffffffffff163373ffffffffffffffffffffffffffffffffffffffff16145b610dd4576040517f08c379a0000000000000000000000000000000000000000000000000000000008152600401610dcb9061216d565b60405180910390fd5b8060010160009054906101000a900473ffffffffffffffffffffffffffffffffffffffff1673ffffffffffffffffffffffffffffffffffffffff163373ffffffffffffffffffffffffffffffffffffffff160361109e57600073ffffffffffffffffffffffffffffffffffffffff168160030160009054906101000a900473ffffffffffffffffffffffffffffffffffffffff1673ffffffffffffffffffffffffffffffffffffffff1614611016578060030160009054906101000a900473ffffffffffffffffffffffffffffffffffffffff168160010160006101000a81548173ffffffffffffffffffffffffffffffffffffffff021916908373ffffffffffffffffffffffffffffffffffffffff16021790555080600401816002019081610efe91906124f2565b508060060160039054906101000a900460ff168160060160026101000a81548160ff021916908360ff1602179055508060060160019054906101000a900460ff168160060160006101000a81548160ff02191690831515021790555060008160030160006101000a81548173ffffffffffffffffffffffffffffffffffffffff021916908373ffffffffffffffffffffffffffffffffffffffff16021790555060405180602001604052806000815250816004019081610fbe91906125da565b5060008160060160016101000a81548160ff0219169083151502179055507f96561394bac381230de4649200e8831afcab1f451881bbade9ef209f6dd30480604051611009906126f8565b60405180910390a1611099565b60008160010160006101000a81548173ffffffffffffffffffffffffffffffffffffffff021916908373ffffffffffffffffffffffffffffffffffffffff1602179055506040518060200160405280600081525081600201908161107a91906125da565b5060008160060160006101000a81548160ff0219169083151502179055505b611121565b60008160030160006101000a81548173ffffffffffffffffffffffffffffffffffffffff021916908373ffffffffffffffffffffffffffffffffffffffff1602179055506040518060200160405280600081525081600401908161110291906125da565b5060008160060160016101000a81548160ff0219169083151502179055505b600073ffffffffffffffffffffffffffffffffffffffff168160010160009054906101000a900473ffffffffffffffffffffffffffffffffffffffff1673ffffffffffffffffffffffffffffffffffffffff161480156111d15750600073ffffffffffffffffffffffffffffffffffffffff168160030160009054906101000a900473ffffffffffffffffffffffffffffffffffffffff1673ffffffffffffffffffffffffffffffffffffffff16145b156112cf57600160008381526020019081526020016000206000808201600090556001820160006101000a81549073ffffffffffffffffffffffffffffffffffffffff0219169055600282016000611229919061193f565b6003820160006101000a81549073ffffffffffffffffffffffffffffffffffffffff0219169055600482016000611260919061193f565b60058201600090556006820160006101000a81549060ff02191690556006820160016101000a81549060ff02191690556006820160026101000a81549060ff02191690556006820160036101000a81549060ff02191690556006820160046101000a81549060ff021916905550505b5050565b60006001600083815260200190815260200160002090508060060160049054906101000a900460ff1661133b576040517f08c379a000000000000000000000000000000000000000000000000000000000815260040161133290612101565b60405180910390fd5b600073ffffffffffffffffffffffffffffffffffffffff168160030160009054906101000a900473ffffffffffffffffffffffffffffffffffffffff1673ffffffffffffffffffffffffffffffffffffffff16146113ce576040517f08c379a00000000000000000000000000000000000000000000000000000000081526004016113c590612764565b60405180910390fd5b80600501543414611414576040517f08c379a000000000000000000000000000000000000000000000000000000000815260040161140b906127d0565b60405180910390fd5b338160030160006101000a81548173ffffffffffffffffffffffffffffffffffffffff021916908373ffffffffffffffffffffffffffffffffffffffff160217905550600260003373ffffffffffffffffffffffffffffffffffffffff1673ffffffffffffffffffffffffffffffffffffffff1681526020019081526020016000208160040190816114a691906124f2565b507fb80410fbf3b1a814d3d96a9803d70319bfab55e4f99bd6cd8c01849197b191538233600260003373ffffffffffffffffffffffffffffffffffffffff1673ffffffffffffffffffffffffffffffffffffffff16815260200190815260200160002060405161151893929190612874565b60405180910390a15050565b803414611566576040517f08c379a000000000000000000000000000000000000000000000000000000000815260040161155d906127d0565b60405180910390fd5b600080815480929190611578906128b2565b919050555060405180610160016040528060005481526020013373ffffffffffffffffffffffffffffffffffffffff168152602001600260003373ffffffffffffffffffffffffffffffffffffffff1673ffffffffffffffffffffffffffffffffffffffff16815260200190815260200160002080546115f790611ea4565b80601f016020809104026020016040519081016040528092919081815260200182805461162390611ea4565b80156116705780601f1061164557610100808354040283529160200191611670565b820191906000526020600020905b81548152906001019060200180831161165357829003601f168201915b50505050508152602001600073ffffffffffffffffffffffffffffffffffffffff168152602001604051806020016040528060008152508152602001828152602001600015158152602001600015158152602001600060ff168152602001600060ff1681526020016001151581525060016000805481526020019081526020016000206000820151816000015560208201518160010160006101000a81548173ffffffffffffffffffffffffffffffffffffffff021916908373ffffffffffffffffffffffffffffffffffffffff160217905550604082015181600201908161175991906125da565b5060608201518160030160006101000a81548173ffffffffffffffffffffffffffffffffffffffff021916908373ffffffffffffffffffffffffffffffffffffffff16021790555060808201518160040190816117b691906125da565b5060a0820151816005015560c08201518160060160006101000a81548160ff02191690831515021790555060e08201518160060160016101000a81548160ff0219169083151502179055506101008201518160060160026101000a81548160ff021916908360ff1602179055506101208201518160060160036101000a81548160ff021916908360ff1602179055506101408201518160060160046101000a81548160ff0219169083151502179055509050507fd9abe6195309293e802058345712163744c28bde8471531f9990f08419585bcf60005433600260003373ffffffffffffffffffffffffffffffffffffffff1673ffffffffffffffffffffffffffffffffffffffff168152602001908152602001600020846040516118de94939291906128fa565b60405180910390a150565b60005481565b80600260003373ffffffffffffffffffffffffffffffffffffffff1673ffffffffffffffffffffffffffffffffffffffff168152602001908152602001600020908161193b91906125da565b5050565b50805461194b90611ea4565b6000825580601f1061195d575061197c565b601f01602090049060005260206000209081019061197b919061197f565b5b50565b5b80821115611998576000816000905550600101611980565b5090565b6000604051905090565b600080fd5b600080fd5b6000819050919050565b6119c3816119b0565b81146119ce57600080fd5b50565b6000813590506119e0816119ba565b92915050565b6000602082840312156119fc576119fb6119a6565b5b6000611a0a848285016119d1565b91505092915050565b611a1c816119b0565b82525050565b600073ffffffffffffffffffffffffffffffffffffffff82169050919050565b6000611a4d82611a22565b9050919050565b611a5d81611a42565b82525050565b600081519050919050565b600082825260208201905092915050565b60005b83811015611a9d578082015181840152602081019050611a82565b60008484015250505050565b6000601f19601f8301169050919050565b6000611ac582611a63565b611acf8185611a6e565b9350611adf818560208601611a7f565b611ae881611aa9565b840191505092915050565b60008115159050919050565b611b0881611af3565b82525050565b600060ff82169050919050565b611b2481611b0e565b82525050565b600061016082019050611b40600083018e611a13565b611b4d602083018d611a54565b8181036040830152611b5f818c611aba565b9050611b6e606083018b611a54565b8181036080830152611b80818a611aba565b9050611b8f60a0830189611a13565b611b9c60c0830188611aff565b611ba960e0830187611aff565b611bb7610100830186611b1b565b611bc5610120830185611b1b565b611bd3610140830184611aff565b9c9b505050505050505050505050565b6000611bee82611a22565b9050919050565b611bfe81611be3565b8114611c0957600080fd5b50565b600081359050611c1b81611bf5565b92915050565b600060208284031215611c3757611c366119a6565b5b6000611c4584828501611c0c565b91505092915050565b60006020820190508181036000830152611c688184611aba565b905092915050565b611c7981611b0e565b8114611c8457600080fd5b50565b600081359050611c9681611c70565b92915050565b60008060408385031215611cb357611cb26119a6565b5b6000611cc1858286016119d1565b9250506020611cd285828601611c87565b9150509250929050565b6000602082019050611cf16000830184611a13565b92915050565b600080fd5b600080fd5b7f4e487b7100000000000000000000000000000000000000000000000000000000600052604160045260246000fd5b611d3982611aa9565b810181811067ffffffffffffffff82111715611d5857611d57611d01565b5b80604052505050565b6000611d6b61199c565b9050611d778282611d30565b919050565b600067ffffffffffffffff821115611d9757611d96611d01565b5b611da082611aa9565b9050602081019050919050565b82818337600083830152505050565b6000611dcf611dca84611d7c565b611d61565b905082815260208101848484011115611deb57611dea611cfc565b5b611df6848285611dad565b509392505050565b600082601f830112611e1357611e12611cf7565b5b8135611e23848260208601611dbc565b91505092915050565b600060208284031215611e4257611e416119a6565b5b600082013567ffffffffffffffff811115611e6057611e5f6119ab565b5b611e6c84828501611dfe565b91505092915050565b7f4e487b7100000000000000000000000000000000000000000000000000000000600052602260045260246000fd5b60006002820490506001821680611ebc57607f821691505b602082108103611ecf57611ece611e75565b5b50919050565b7f496e76616c696420746f737320726573756c7400000000000000000000000000600082015250565b6000611f0b601383611a6e565b9150611f1682611ed5565b602082019050919050565b60006020820190508181036000830152611f3a81611efe565b9050919050565b7f426f7468207573657273206d7573742062652072656164790000000000000000600082015250565b6000611f77601883611a6e565b9150611f8282611f41565b602082019050919050565b60006020820190508181036000830152611fa681611f6a565b9050919050565b7f4e487b7100000000000000000000000000000000000000000000000000000000600052601160045260246000fd5b6000611fe7826119b0565b9150611ff2836119b0565b9250828202612000816119b0565b9150828204841483151761201757612016611fad565b5b5092915050565b7f4e487b7100000000000000000000000000000000000000000000000000000000600052601260045260246000fd5b6000612058826119b0565b9150612063836119b0565b9250826120735761207261201e565b5b828204905092915050565b60006060820190506120936000830186611a13565b6120a06020830185611aff565b6120ad6040830184611aff565b949350505050565b7f526f6f6d206973206e6f74206163746976650000000000000000000000000000600082015250565b60006120eb601283611a6e565b91506120f6826120b5565b602082019050919050565b6000602082019050818103600083015261211a816120de565b9050919050565b7f4e6f742061207061727469636970616e74000000000000000000000000000000600082015250565b6000612157601183611a6e565b915061216282612121565b602082019050919050565b600060208201905081810360008301526121868161214a565b9050919050565b7f496e76616c696420677565737300000000000000000000000000000000000000600082015250565b60006121c3600d83611a6e565b91506121ce8261218d565b602082019050919050565b600060208201905081810360008301526121f2816121b6565b9050919050565b61220281611be3565b82525050565b600060408201905061221d6000830185611a13565b61222a60208301846121f9565b9392505050565b6000819050919050565b61224c612247826119b0565b612231565b82525050565b600061225e828561223b565b60208201915061226e828461223b565b6020820191508190509392505050565b6000612289826119b0565b9150612294836119b0565b9250826122a4576122a361201e565b5b828206905092915050565b7f526f6f6d20697320616374697665000000000000000000000000000000000000600082015250565b60006122e5600e83611a6e565b91506122f0826122af565b602082019050919050565b60006020820190508181036000830152612314816122d8565b9050919050565b60008154905061232a81611ea4565b9050919050565b60008190508160005260206000209050919050565b60008190508160005260206000209050919050565b60006020601f8301049050919050565b600082821b905092915050565b6000600883026123a87fffffffffffffffffffffffffffffffffffffffffffffffffffffffffffffffff8261236b565b6123b2868361236b565b95508019841693508086168417925050509392505050565b6000819050919050565b60006123ef6123ea6123e5846119b0565b6123ca565b6119b0565b9050919050565b6000819050919050565b612409836123d4565b61241d612415826123f6565b848454612378565b825550505050565b600090565b612432612425565b61243d818484612400565b505050565b5b818110156124615761245660008261242a565b600181019050612443565b5050565b601f8211156124a65761247781612331565b6124808461235b565b8101602085101561248f578190505b6124a361249b8561235b565b830182612442565b50505b505050565b600082821c905092915050565b60006124c9600019846008026124ab565b1980831691505092915050565b60006124e283836124b8565b9150826002028217905092915050565b8181036125005750506125d8565b6125098261231b565b67ffffffffffffffff81111561252257612521611d01565b5b61252c8254611ea4565b612537828285612465565b6000601f8311600181146125665760008415612554578287015490505b61255e85826124d6565b8655506125d1565b601f19841661257487612346565b965061257f86612331565b60005b828110156125a757848901548255600182019150600185019450602081019050612582565b868310156125c457848901546125c0601f8916826124b8565b8355505b6001600288020188555050505b5050505050505b565b6125e382611a63565b67ffffffffffffffff8111156125fc576125fb611d01565b5b6126068254611ea4565b612611828285612465565b600060209050601f8311600181146126445760008415612632578287015190505b61263c85826124d6565b8655506126a4565b601f19841661265286612331565b60005b8281101561267a57848901518255600182019150602085019450602081019050612655565b868310156126975784890151612693601f8916826124b8565b8355505b6001600288020188555050505b505050505050565b7f6d6573736167653a000000000000000000000000000000000000000000000000600082015250565b60006126e2600883611a6e565b91506126ed826126ac565b602082019050919050565b60006020820190508181036000830152612711816126d5565b9050919050565b7f526f6f6d2069732066756c6c0000000000000000000000000000000000000000600082015250565b600061274e600c83611a6e565b915061275982612718565b602082019050919050565b6000602082019050818103600083015261277d81612741565b9050919050565b7f496e636f72726563742062657420616d6f756e74000000000000000000000000600082015250565b60006127ba601483611a6e565b91506127c582612784565b602082019050919050565b600060208201905081810360008301526127e9816127ad565b9050919050565b600081546127fd81611ea4565b6128078186611a6e565b9450600182166000811461282257600181146128385761286b565b60ff19831686528115156020028601935061286b565b61284185612331565b60005b8381101561286357815481890152600182019150602081019050612844565b808801955050505b50505092915050565b60006060820190506128896000830186611a13565b61289660208301856121f9565b81810360408301526128a881846127f0565b9050949350505050565b60006128bd826119b0565b91507fffffffffffffffffffffffffffffffffffffffffffffffffffffffffffffffff82036128ef576128ee611fad565b5b600182019050919050565b600060808201905061290f6000830187611a13565b61291c60208301866121f9565b818103604083015261292e81856127f0565b905061293d6060830184611a13565b9594505050505056fea26469706673582212200052ffc30f6d020b22ced097fea71e99999ff8f3704c32927786d04f30c1ce6a64736f6c63430008130033",
  "immutableReferences": {},
  "source": "// SPDX-License-Identifier: MIT\r\npragma solidity ^0.8.19;\r\n\r\ncontract CoinFlipGame {\r\n    struct Room {\r\n        uint256 id;\r\n        address payable host;\r\n        string hostUsername;\r\n        address payable guest;\r\n        string guestUsername;\r\n        uint256 betAmount;\r\n        bool hostReady;\r\n        bool guestReady;\r\n        uint8 hostGuess;\r\n        uint8 guestGuess;\r\n        bool isActive;\r\n    }\r\n\r\n    uint256 public roomCount = 0;\r\n    mapping(uint256 => Room) public rooms;\r\n    mapping(address => string) public usernameByAddress;\r\n\r\n    event RoomCreated(uint256 roomId, address host, string hostUsername, uint256 betAmount);\r\n    event RoomJoined(uint256 roomId, address guest, string guestUsername);\r\n    event UserReady(uint256 roomId, address user);\r\n    event CoinToss(uint256 indexed roomId, uint256 tossResult);\r\n    event GameResult(uint256 roomId, bool hostWon, bool guestWon);\r\n    event LogMessage(string message);\r\n\r\n    function setUsername(string memory _username) external {\r\n        usernameByAddress[msg.sender] = _username;\r\n    }\r\n\r\n    function createRoom(uint256 _betAmount) external payable {\r\n        require(msg.value == _betAmount, \"Incorrect bet amount\");\r\n        roomCount++;\r\n        rooms[roomCount] = Room(\r\n            roomCount,\r\n            payable(msg.sender),\r\n            usernameByAddress[msg.sender],\r\n            payable(address(0)),\r\n            \"\",\r\n            _betAmount,\r\n            false,\r\n            false,\r\n            0,\r\n            0,\r\n            true\r\n        );\r\n        emit RoomCreated(roomCount, msg.sender, usernameByAddress[msg.sender], _betAmount);\r\n    }\r\n\r\n    function joinRoom(uint256 _roomId) external payable {\r\n        Room storage room = rooms[_roomId];\r\n        require(room.isActive, \"Room is not active\");\r\n        require(room.guest == address(0), \"Room is full\");\r\n        require(msg.value == room.betAmount, \"Incorrect bet amount\");\r\n\r\n        room.guest = payable(msg.sender);\r\n        room.guestUsername = usernameByAddress[msg.sender];\r\n        emit RoomJoined(_roomId, msg.sender, usernameByAddress[msg.sender]);\r\n    }\r\n\r\n    function setReady(uint256 _roomId, uint8 _guess) external {\r\n        Room storage room = rooms[_roomId];\r\n        require(room.isActive, \"Room is not active\");\r\n        require(msg.sender == room.host || msg.sender == room.guest, \"Not a participant\");\r\n        require(_guess == 0 || _guess == 1, \"Invalid guess\");\r\n\r\n        if (msg.sender == room.host) {\r\n            room.hostReady = true;\r\n            room.hostGuess = _guess;\r\n        } else {\r\n            room.guestReady = true;\r\n            room.guestGuess = _guess;\r\n        }\r\n        emit UserReady(_roomId, msg.sender);\r\n\r\n        if (room.hostReady && room.guestReady) {\r\n            uint256 tossResult = uint256(keccak256(abi.encodePacked(block.timestamp, block.prevrandao))) % 2;\r\n            emit CoinToss(_roomId, tossResult);\r\n        }\r\n    }\r\n\r\n    function handleCoinTossResult(uint256 _roomId, uint8 _tossResult) external {\r\n        require(_tossResult == 0 || _tossResult == 1, \"Invalid toss result\");\r\n        Room storage room = rooms[_roomId];\r\n        require(room.hostReady && room.guestReady, \"Both users must be ready\");\r\n\r\n        bool hostWon = (room.hostGuess == _tossResult);\r\n        bool guestWon = (room.guestGuess == _tossResult);\r\n\r\n        if (hostWon && guestWon) {\r\n            room.host.transfer(room.betAmount);\r\n            room.guest.transfer(room.betAmount);\r\n        } else if (hostWon) {\r\n            room.host.transfer(room.betAmount * 2 * 99 / 100); // 1% fee\r\n        } else if (guestWon) {\r\n            room.guest.transfer(room.betAmount * 2 * 99 / 100); // 1% fee\r\n        } else {\r\n            room.host.transfer(room.betAmount);\r\n            room.guest.transfer(room.betAmount);\r\n        }\r\n        room.isActive = false;\r\n        emit GameResult(_roomId, hostWon, guestWon);\r\n    }\r\n\r\n    function leaveRoom(uint256 _roomId) external {\r\n        Room storage room = rooms[_roomId];\r\n        require(!room.isActive, \"Room is active\");\r\n        require(msg.sender == room.host || msg.sender == room.guest, \"Not a participant\");\r\n\r\n        if (msg.sender == room.host) {\r\n            if (room.guest != address(0)) {\r\n                // Make guest the new host\r\n                room.host = room.guest;\r\n                room.hostUsername = room.guestUsername;\r\n                room.hostGuess = room.guestGuess;\r\n                room.hostReady = room.guestReady;\r\n\r\n                room.guest = payable(address(0));\r\n                room.guestUsername = \"\";\r\n                room.guestReady = false;\r\n                emit LogMessage('message:');\r\n            } else {\r\n                room.host = payable(address(0));\r\n                room.hostUsername = \"\";\r\n                room.hostReady = false;\r\n            }\r\n        } else {\r\n            room.guest = payable(address(0));\r\n            room.guestUsername = \"\";\r\n            room.guestReady = false;\r\n        }\r\n\r\n        if (room.host == address(0) && room.guest == address(0)) {\r\n            delete rooms[_roomId];\r\n        }\r\n    }\r\n}\r\n",
  "sourcePath": "F:\\gpt_based\\web3\\test\\coinFlip\\smart_contracts\\contracts\\CoinFlipGame.sol",
  "compiler": {
    "name": "solc",
    "version": "0.8.19+commit.7dd6d404.Emscripten.clang"
  },
  "schemaVersion": "3.4.13",
  "updatedAt": "2023-04-24T18:10:28.827Z",
  "networkType": "ethereum",
  "devdoc": {
    "kind": "dev",
    "methods": {},
    "version": 1
  },
  "userdoc": {
    "kind": "user",
    "methods": {},
    "version": 1
  }
}